:020000040800F2
:10000000A01200209D010008A5010008A70100081A
:10001000A9010008AB010008AD01000800000000C4
:10002000000000000000000000000000AF01000818
:10003000B101000800000000B3010008B50100088C
:10004000B7010008B7010008B7010008B7010008B0
:10005000B7010008B7010008B7010008B7010008A0
:10006000B7010008B7010008B7010008B701000890
:10007000B7010008B7010008B7010008B701000880
:10008000B1090008B7010008B7010008B70100086E
:100090001D030008B7010008B7010008B7010008F8
:1000A000B7010008B7010008B7010008B701000850
:1000B000B7010008751A0008B7010008B701000869
:1000C000B7010008B7010008B7010008B701000830
:1000D000B7010008B7010008B7010008B701000820
:1000E000B7010008B7010008B7010008B701000810
:1000F000B7010008B7010008B7010008B701000800
:10010000B7010008B7010008B7010008B7010008EF
:10011000B70100089D1C0008B7010008B7010008DE
:10012000B7010008B7010008B7010008B7010008CF
:10013000B7010008B7010008B7010008B7010008BF
:10014000A5040008B7010008B7010008B7010008BE
:10015000B7010008B7010008B7010008B70100089F
:10016000B7010008B7010008B7010008B70100088F
:10017000B7010008B7010008B7010008B70100087F
:10018000B7010008B7010008DFF80CD000F03CF818
:10019000004800473D200008A01200200648804784
:1001A00006480047FEE7FEE7FEE7FEE7FEE7FEE75C
:1001B000FEE7FEE7FEE7FEE7191A000889010008DE
:1001C00040EA01039B0703D009E008C9121F08C0D9
:1001D000042AFAD203E011F8013B00F8013B521E59
:1001E000F9D27047D2B201E000F8012B491EFBD2D0
:1001F00070470022F6E710B513460A460446194632
:10020000FFF7F0FF204610BD064C074D06E0E06802
:1002100040F0010394E8070098471034AC42F6D34D
:10022000FFF7B6FF54220008742200082DE9F041C0
:1002300001218AB0084601F005FB0121480601F0C2
:100240000DFB02278DF8207000244FF4C0508DF86C
:1002500022400326DFF8BC8007908DF8216001253D
:100260008DF8235007A9404600F070FE09220B21AB
:10027000404600F0BCFE09220C21404600F0B7FECB
:100280008DF806408DF807408DF8024008208DF863
:1002900003408DF804008DF808408DF80560ADF836
:1002A00000608DF809401C4E8DF80A408DF80B5007
:1002B0006946304600F04AFA8DF816408DF817402E
:1002C0008DF81850ADF80C40ADF81040ADF80E4068
:1002D000ADF81240ADF814408DF8195003A800F0A5
:1002E00073F901220221304600F028FA4FF4A06091
:1002F00000F0C0FE14208DF824008DF825708DF8D4
:1003000026508DF8275009A800F082FE0AB0BDE8FB
:10031000F0810000000002400064004010B50D4C68
:1003200086B00221204600F0B5F9002810D0022145
:10033000204600F0F7F801AA0021204600F07AFAE2
:1003400005980DF1040C00909CE80F0000F008FDEA
:1003500006B010BD0064004010B586B000248DF8D2
:1003600009408DF808404FF40074009408248DF87B
:100370000A40040A8DF80C00080A8DF80D008DF86B
:100380000E10100A8DF80F008DF81020180A8DF845
:1003900011008DF80B408DF812306946024800F0CC
:1003A00091FA06B010BD0000006400402DE9F04154
:1003B0008AB00121022001F045FA0121880601F0EE
:1003C0004DFA02268DF8206000244FF440508DF83D
:1003D00022400327DFF8C48007908DF821700125A3
:1003E0008DF8235007A9404600F0B0FD09220C21EA
:1003F000404600F0FCFD09220D21404600F0F7FDCB
:10040000DFF89C80404600F0C9F88DF806408DF872
:1004100007408DF8084008208DF809408DF802400B
:100420008DF804008DF80A408DF803408DF80B50CC
:100430008DF80570ADF800706946404600F086F909
:100440000E208DF816008DF817408DF81850ADF875
:100450000C40ADF81040ADF80E40ADF81240ADF8CC
:1004600014408DF8195003A800F0AEF801220221C3
:10047000404600F063F94FF4A06000F0FBFD40201F
:100480008DF824008DF825608DF826608DF82750B2
:1004900009A800F0BDFD0AB0BDE8F08100040240EB
:1004A0000068004010B50D4C86B00221204600F0D7
:1004B000F1F8002810D00221204600F033F801AAFC
:1004C0000021204600F0B6F905980DF1040C0090CB
:1004D0009CE80F0000F044FC06B010BD006800402E
:1004E0000D4B30B401221A600C4A002340F2FF1475
:1004F00053721372146008249472040AD472107335
:10050000080A50739173D37313745374937430BC8B
:100510001146034800F0D6B9000000203C0100203D
:100520000068004030B5082310240422B1F5007F94
:100530001DD010DC202929D007DC012921D0042975
:1005400022D0082900D1C46030BD402920D0B1F5A7
:10055000807FF9D10BE00025B1F5004F06D008DC13
:10056000B1F5806F03D0B1F5006FEDD185614260C8
:1005700030BDB1F5803F0DD0B1F5003FF8D14460FA
:1005800030BD0549816030BDC36030BD036130BD01
:10059000046130BD436030BD01010100094910B55F
:1005A00088424FF0010101D14C0601E04FF0806418
:1005B000204601F05FF92046BDE81040002101F01F
:1005C00059B9000000640040F0B5827A01219140E1
:1005D0002E4A136843F0010313602C4B1C331C6834
:1005E0008C431C60294D067B294C0C35A6B92E681E
:1005F0008E432E604688C78846EA0746877A04EB12
:10060000C707C7F840660688878846EA0746877A9C
:1006100004EBC707C7F84466067B012E12D12E688B
:100620000E432E60867A056804EBC6064FEA354510
:10063000C6F84056867A456804EBC6044FEA35454D
:10064000C4F84456114CC57A241D002D256806D0E7
:100650000D4325600D4C0589143415B104E08D431C
:10066000F7E725688D4325600589012D02D12568AE
:100670000D432560407B012802D1186808431860AB
:10068000106820F001001060F0BD0000006600401E
:10069000006000400246002053690B424AD0B1F589
:1006A000807F3BD013DC08292ED007DC012926D01F
:1006B000022927D004293DD1D0682BE0102925D06C
:1006C000202926D0402935D11069102130E0B1F51C
:1006D000004F2BD00BDCB1F5007F22D0B1F5806F3D
:1006E00022D0B1F5006F25D19069702120E0B1F5DD
:1006F000803F11D0B1F5003F1CD15068E5E790680C
:100700000D4915E0D06802E0D068DEE710690321EA
:100710000EE0106908210BE05068FBE790690121A9
:1007200006E09069022103E0906900E0506804212E
:1007300000F01AB97047000001010100002A426967
:1007400001D00A4300E08A434261704710B5036854
:10075000002223F002030360036843F001030360F7
:100760004FF6FF7300E0521C4468E40701D19A423F
:10077000F9D14268D2073ED08A79012A02683CD07A
:1007800022F080020260CA79012A026838D022F081
:10079000400202600A7A012A026834D022F0200264
:1007A00002604A7A012A026830D022F01002026008
:1007B0008A7A012A02682CD022F008020260CA7AE2
:1007C000012A026828D022F0040202608A78CC78DC
:1007D000920742EA04620C7942EA04424C790988A1
:1007E00042EA0452491E0A43C261016821F0010134
:1007F0000160002114E0002010BD42F08002C1E73A
:1008000042F04002C5E742F02002C9E742F0100280
:10081000CDE742F00802D1E742F00402D5E7491CD7
:100820004268D20701D09942F9D14068C007E2D1AD
:10083000012010BD10B500EB0113D3F8B04114F046
:1008400004041472D3F8B04134D0E408C2F8044070
:10085000D3F8B04104F002045472D3F8B44104F068
:100860000F049472D3F8B441240AD474D3F8B84175
:10087000D472D3F8B841240A1473D3F8B841240CC5
:100880005473D3F8B841240E9473D3F8BC41D47395
:10089000D3F8BC41240A1474D3F8BC41240C54741A
:1008A000D3F8BC311B0E937439B1016941F02001BA
:1008B000016110BD640D1460CAE7C16841F02001F8
:1008C000C16010BD30B50246002093685B0108D4BA
:1008D0009068000101D5012003E09068C00037D581
:1008E000022002EB0012D2F8803103F00103C2F8BB
:1008F00080310B7A73B3D2F880414D681C434B7A38
:1009000043EAC5031C43C2F880418B7A03F00F030E
:100910008B72D2F8843123F00F03C2F88431D2F8FD
:1009200084318C7A2343C2F88431CB7ACC6843EA91
:100930000423C2F88831CB7B096943EA0121C2F85C
:100940008C11D2F8801141F00101C2F8801130BD44
:10095000042030BDD2F880314C7A23430C8843EA1E
:100960004453C2F88031D0E7024600200A4200D04A
:10097000012070470C4890ED020A0C4880ED000AF7
:1009800080ED010A30EE400ABDEEC00A10EE100AFA
:10099000B0F5B47F06DDB42190FBF1F000EE100A53
:1009A000B8EEC00A70470000500100203C00002053
:1009B0002DE9F0474C4C00204C4E4D4D20703146F7
:1009C000284600F063F9002856D04A49284600F02E
:1009D00095F83146284600F0A7F8DFF81C8104F1AD
:1009E000180C08F11A03B8F80000C0F30A051D80BE
:1009F00098F80100A5F5B677C10898F8020041EA19
:100A00004011C1F30A025A8098F80310800940EAA5
:100A1000810198F8040041EA8021C1F30A0199801C
:100A2000400898F80560B7F5A56F40EAC610C0F316
:100A30000A00D88010D84FF4B6794A450CDB40F252
:100A400094639A4208DC494506DB994204DC074678
:100A5000484501DB984211DD4FF48060ACF800009E
:100A6000ACF80200ACF80400ACF8060001208CF8E9
:100A700008008CF809006070BDE8F087ACF8005001
:100A8000ACF80220ACF80410ACF80670B0098CF891
:100A90000800C6F301118CF80910A070B8F80E0018
:100AA000ACF810005FF00000BCF910100CEB000275
:100AB000014101F00101401C91741028F4DBB8F8E9
:100AC0000600ACF80A00B8F80800ACF80C00B8F85A
:100AD0000A00ACF80E0098F80C008CF8220098F888
:100AE0000D008CF82300C7E7440000200088002098
:100AF0008860024000080020A4020020074A9042BB
:100B000001D2074801E005481038064A8B0001EA87
:100B1000020101D5C16070478160704710640240D6
:100B2000006002407D0F7D0F074A904201D20748C6
:100B300001E005481038064A8B0001EA020101D5A0
:100B4000C1607047816070471064024000600240DD
:100B50007D0F7D0F0029016802D041F0010101E005
:100B600021F00101016070472DE9F043016821F097
:100B7000010101600021016041608160C16001618B
:100B8000212141613C493C4A3D251039904202D126
:100B90008D60BDE8F083384A4FF474661832904295
:100BA00001D18E60F5E7344A4FF474173032904229
:100BB00001D18F60EDE7304A4FF0746C48329042BB
:100BC00002D1C1F808C0E4E72B4B2C4A60339842AD
:100BD00001D1CA60DDE7284C294B7834A04201D10D
:100BE000CB60D6E7DFF89080264C08F190084045AE
:100BF00001D1CC60CDE7DFF880804FF03D5908F19E
:100C0000A808404502D1C1F80C90C2E71E49DFF8A0
:100C100078800839404501D10D60BAE71A4D183582
:100C2000A84201D10E60B4E7174D3035A84201D17A
:100C30000F60AEE7144D4835A84202D1C1F800C09C
:100C4000A7E7114D10496035091FA84201D10A607C
:100C50009FE70D4A7832904201D10B6099E70A4A2A
:100C60009032904201D10C6093E7074AA83290423B
:100C70008FD1C1F800908CE7106002403D00002049
:100C8000400F002000003D201064024030B5104AA3
:100C90000024904201D20F4B01E00D4B103B0E4A55
:100CA000114205D01E2202EAD12502682A4002E044
:100CB000406900F08002880001D5586800E018689B
:100CC000064B1840084201D002B10124204630BD35
:100CD00010640240006002403C0F3C0F7D0F7D0F0E
:100CE0000B0607D5436912B143F0800301E023F0FE
:100CF00080034361802908D0002A026801F01E01A8
:100D000001D00A4300E08A430260704730B50368AF
:100D1000124ACC6813400A682243D1E905452C43A6
:100D20002243CC6922430C6A22434C6A22438C6AD8
:100D300022434C6B22438C6B22431A43026042696C
:100D400022F00703D1E90B2422431A4342610A69C6
:100D500042604A6882608968C16030BD3F801CF093
:100D60000FB4794870B5049DBDF81B40BDF81D3027
:100D7000BDF81F209DF82110A5F20125072D23D2D3
:100D8000DFE805F004234261809FBE0064BA24B20C
:100D900000EE104A5BBA1BB2B8EEC00A52BA12B2E9
:100DA00080ED040A00EE103AB8EEC00A80ED000AA9
:100DB00000EE102AB8EEC00A80ED0E0A00EE101AFE
:100DC000B8EE400A80ED150AB8E064BA24B200EE2D
:100DD000104A5BBA1BB2B8EEC00A52BA12B280ED2A
:100DE000050A00EE103AB8EEC00A80ED010A00EEE6
:100DF000102AB8EEC00A80ED0F0A00EE101AB8EE05
:100E0000400A80ED160A99E064BA24B200EE104A56
:100E10005BBA1BB2B8EEC00A52BA12B280ED060A33
:100E200000EE103AB8EEC00A80ED020A00EE102A79
:100E3000B8EEC00A80ED100A00EE101AB8EE400AB3
:100E400080ED170A7AE064BA24B200EE104A5BBA69
:100E50001BB2B8EEC00A52BA12B280ED070A00EE19
:100E6000103AB8EEC00A80ED030A00EE102AB8EE80
:100E7000C00A80ED110A00EE101AB8EE400A80EDAB
:100E8000180A5BE064BA24B200EE104A5BBA1BB2E7
:100E9000B8EEC00A52BA12B280ED080A00EE103A5B
:100EA000B8EEC00A80ED0B0A00EE102AB8EEC00AB8
:100EB00080ED120A00EE101AB8EE400A80ED190A11
:100EC0003CE064BA24B200EE104A5BBA1BB2B8EE42
:100ED000C00A52BA12B280ED090A00EE103AB8EE1A
:100EE000C00A80ED0C0A00EE102AB8EEC00A80EDB0
:100EF000130A00EE101AB8EE400A80ED1A0A1DE03F
:100F000064BA24B200EE104A5BBA1BB2B8EEC00A53
:100F100052BA12B280ED0A0A00EE103AB8EEC00AD8
:100F200080ED0D0A00EE102AB8EEC00A80ED140A1A
:100F300000EE101AB8EE400A80ED1B0A012180F87D
:100F4000701070BC5DF814FBB8000020F0B50023F1
:100F5000012403270D6804FA03F21540954242D19B
:100F6000D0F800C05E0007FA06F52CEA050CC0F8C0
:100F700000C091F804C0D0F800E00CFA06FC4CEA7E
:100F80000E0CC0F800C091F804C0BCF1010F02D0F3
:100F9000BCF1020F1FD1D0F808C02CEA050CC0F834
:100FA00008C091F805C0D0F808E00CFA06FC4CEA3D
:100FB0000E0CC0F808C0D0F804C02CEA020CC0F82F
:100FC00004C0426891F806C00CFA03FC1FFA8CFCBE
:100FD00042EA0C024260C268AA43C260CA79C5688C
:100FE000B2402A43C2605B1C102BB3D3F0BD4B0749
:100FF000DB0E9A40C90810B500EB8100016A0F248E
:101000009C40A1430162016A1143016210BD0000CE
:1010100030B50F22C47801780123FCB1144C246848
:1010200001F1E02104F4E064C4F5E064C4F30724B2
:10103000C4F10405E2404478AC408578154025436E
:101040002A0181F80024007800F01F018B4040093C
:10105000800000F1E020C0F8003130BD01F01F0039
:1010600083404809800000F1E020C0F8803130BDA5
:101070000CED00E002490843024908607047000097
:101080000000FA050CED00E02DE9F0410024051DFB
:10109000484EB0F8847027E0285DC0283BD012DCB1
:1010A000A52829D008DC902822D0A02824D0A12867
:1010B00022D0A22817D11FE0B02825D0B12823D0F4
:1010C000B22810D120E0D12868D006DCC12822D077
:1010D000C22820D0D02806D125E0D92852D0E02837
:1010E00065D0F02863D0641CA742D5DCBDE8F08150
:1010F00068783070A41CF7E7281950F8011FC6F86B
:1011000002108088F0803BE0281950F8011FB16080
:101110008088B08134E0281950F8011FC6F80E10FD
:10112000808870822CE028194178827801EB0221B6
:1011300009B200EE101A2149F8EEC00A9FED1E0A0E
:1011400080EE801A81ED001AC278037902EB032247
:1011500012B200EE902AF8EEE00A80EE801AF2EE6B
:10116000040A81ED011A4279807902EB002000B275
:1011700000EE100AB8EEC00A80EE201A81ED021AC5
:10118000E41DB1E70D4829190C3851F8012FC26050
:101190004A68026189680D344161A5E70748291949
:1011A00010220C30491CFFF70BF811349CE7641D2A
:1011B0009AE70000940000200000C842800300204D
:1011C0002DE9F041384C014620462778D0E903202C
:1011D0000623A61D0025072F62D2DFE807F00408CA
:1011E0001A1F272A31005A295BD1012009E080F813
:1011F0008810A52904D0A62905D0A72951D105E03A
:10120000022020704DE0EAB3904749E0056023706A
:1012100047E0A0F88410B1700320F2E730F8842F83
:1012200042EA01220280F1700420EAE76180052091
:10123000E7E7628842EA012161800560A580E6E770
:101240000368061D5F1C0760995590F88810A72950
:1012500007D10168082904D30821A0F88410904719
:1012600025702069B0F884200168914219D390F864
:101270008800A52815D10C490422891D881E00F07C
:1012800081FE00E00CE02169074804C9001D00F060
:1012900079FEA0886188884202D1D4E9031088478A
:1012A00025700020BDE8F0818000002070B5044D5D
:1012B0000446E9608C21FEF79CFF2C6170BD0000A4
:1012C000800000202C482D49D0ED0C0A91ED000A39
:1012D0002B4920EE800A91ED001A2A4901EE200ADE
:1012E00091ED001A284901EE200A80ED030AD1EDA4
:1012F000000AC0ED040A70EE600AC0ED050A90ED28
:10130000010A20EE800A80ED080A90ED061A90EDA1
:10131000002A70EEC11A02EE210AB0EE002AF0EEA9
:10132000601A41EE421A90ED072A71EE821A90ED92
:10133000022A02EE210AD0ED0A1A30EE210A80EDCF
:101340000A0A80ED071AC0ED060AD0ED0B0AB4EECA
:10135000E00AF1EE10FA01DDB0EE600AF1EE600A8B
:1013600080ED0A0AB4EEE00AF1EE10FA01D2B0EE16
:10137000600A80ED0A0A70476C01002054000020CA
:101380005000002024000020B80000202D482E49E5
:10139000D0ED0C0A91ED000A2C4920EE800A91ED67
:1013A000001A2B4901EE600A91ED001A294901EE5D
:1013B000200A80ED030AD1ED010AA0F13401C0ED4D
:1013C000040A70EE600AC0ED050A91ED010A20EEF4
:1013D000800A80ED080A90ED061A90ED002A70EE62
:1013E000C11A02EE210AB0EE002AF0EE601A41EEB8
:1013F000421A90ED072A71EE821A90ED022A02EE4F
:10140000210AD0ED0A1A30EE210A80ED0A0A80ED99
:10141000071AC0ED060AD0ED0B0AB4EEE00AF1EEB1
:1014200010FA01DDB0EE600AF1EE600A80ED0A0A02
:10143000B4EEE00AF1EE10FA01D2B0EE600A80EDEF
:101440000A0A7047A001002054000020500000202C
:1014500024000020B80000202C482D49D0ED0C0AB3
:1014600091ED000A2B4920EE800A91ED001A2A49DD
:1014700001EE600A91ED001A284901EE200A80ED84
:10148000030AD1ED020AC0ED040A70EE600AC0ED55
:10149000050A90ED010A20EE800A80ED080A90ED21
:1014A000061A90ED002A70EEC11A02EE210AB0EE83
:1014B000002AF0EE601A41EE421A90ED072A71EE12
:1014C000821A90ED022A02EE210AD0ED0A1A30EEBD
:1014D000210A80ED0A0A80ED071AC0ED060AD0ED58
:1014E0000B0AB4EEE00AF1EE10FA01DDB0EE600A8C
:1014F000F1EE600A80ED0A0AB4EEE00AF1EE10FAAD
:1015000001D2B0EE600A80ED0A0A7047D4010020D3
:10151000500000205400002024000020B8000020CB
:101520002C482D49D0ED0C0A91ED000A2B4920EEF4
:10153000600A91ED001A2A4901EE600A91ED001A45
:10154000284901EE200A80ED030AD1ED030AC0ED1F
:10155000040A70EE600AC0ED050A90ED010A20EE63
:10156000800A80ED080A90ED061A90ED002A70EED0
:10157000C11A02EE210AB0EE002AF0EE601A41EE26
:10158000421A90ED072A71EE821A90ED022A02EEBD
:10159000210AD0ED0A1A30EE210A80ED0A0A80ED08
:1015A000071AC0ED060AD0ED0B0AB4EEE00AF1EE20
:1015B00010FA01DDB0EE600AF1EE600A80ED0A0A71
:1015C000B4EEE00AF1EE10FA01D2B0EE600A80ED5E
:1015D0000A0A704708020020540000205000002032
:1015E00024000020B80000202F489FED301A324A16
:1015F00090ED000A2E48C0EE010A90ED030A9FED1F
:101600002D1A00EE810A10EE101A80ED030A9142A5
:1016100002DD9FED2A0A06E010EE101A284A9142D8
:1016200003D99FED280A80ED030A274991ED020AAC
:1016300080ED040AD0ED030A70EEC00AC0ED050A81
:1016400090ED000A90ED011AD0ED091A20EE200A63
:10165000D0ED022A01EE210A90ED061A71EEA01AD1
:1016600030EEC12A02EE820A80ED0A0AC0ED091AA4
:1016700080ED071AC0ED060AD0ED0B0AB4EEE00AC1
:10168000F1EE10FA01DDB0EE600AF1EE600A80EDD5
:101690000A0AB4EEE00AF1EE10FA01D2B0EE600AE6
:1016A00080ED0A0A704700005800002000009643B1
:1016B0003C02002000003443000033430000334369
:1016C000000033C3000033C350010020554830B53B
:1016D000F2EE040AA0F13401C0ED000AA0F16802A4
:1016E000C1ED000AA0F19C03C2ED000AC3ED000A9F
:1016F0009FED4D0A80ED010A81ED010A82ED010A9C
:1017000083ED010A9FED490A80ED020A81ED020A8C
:1017100082ED020A83ED020A9FED451A00F13404BE
:1017200000F1680584ED001A84ED010A84ED020AD7
:10173000C5ED000A85ED010A85ED020A85ED030A73
:1017400084ED030A80ED030A81ED030A82ED030AAA
:1017500083ED030A85ED040A84ED040A80ED040A92
:1017600081ED040A82ED040A83ED040A85ED050A81
:1017700084ED050A80ED050A81ED050A82ED050A72
:1017800083ED050A85ED060A84ED060A80ED060A5A
:1017900081ED060A82ED060A83ED060A85ED070A49
:1017A00084ED070A80ED070A81ED070A82ED070A3A
:1017B00083ED070A84ED080A80ED080A81ED080A26
:1017C00082ED080ADFED1B0A83ED080AC0ED0B0A63
:1017D000C1ED0B0AC2ED0B0AC3ED0B0ADFED160AD1
:1017E000C4ED0B0ADFED150AC5ED0B0ADFED140A97
:1017F000C5ED0C0AC4ED0C0AC0ED0C0AC1ED0C0AD3
:10180000C2ED0C0AC3ED0C0A85ED0A0A84ED0A0A42
:1018100080ED0A0A81ED0A0A82ED0A0A83ED0A0ABE
:1018200030BD0000080200200AD7233C0000000061
:10183000000048430000FA4500007A450080BB459F
:1018400000803B45044A0029116801D0014300E0B3
:10185000814311607047000030380240044A00297B
:10186000116801D0014300E081431160704700001E
:1018700040380240044A0029116801D0014300E0C9
:10188000814311607047000020380240044A00295B
:10189000116801D0014300E08143116070470000EE
:1018A0002438024070B5204A1168204C11F00C0118
:1018B00004D01F4E042903D0082903D004601BE084
:1018C000066019E01849091F0B68C3F380550B68BF
:1018D00003F03F0315B1B6FBF3F301E0B4FBF3F300
:1018E0000C680968C4F388146343C1F30141491CBF
:1018F0004900B3FBF1F1016011680F2303EA1111F4
:101900000C4B5C5C0168E14041601468072505EA06
:1019100094241C5D21FA04F48460126805EA5232B2
:101920009A5CD140C16070BD083802400024F400C8
:1019300040787D01A80000200CB5002027490190C7
:1019400000900A6842F480320A604FF4A0630A688B
:1019500002F400320092019A521C0192009A12B9CC
:10196000019A9A42F3D10A68920334D5012000907B
:101970001A484030026842F08052026018480268FB
:1019800042F4804202601548083002680260026832
:1019900042F400420260026842F4A0520260031F57
:1019A000104A1A600A6842F080720A600A6892015E
:1019B000FCD50D4A40F205611160016821F0030178
:1019C0000160016841F0020101600168C1F3810119
:1019D0000229FAD10CBD00900CBD00000038024075
:1019E0000070004019544007003C0240074890ED49
:1019F000020A074880ED000A80ED010A9FED050A02
:101A000080ED020A80ED030A7047000050010020BB
:101A1000E402002000000000124810B5016841F403
:101A2000700101601048016841F0010101600E4A37
:101A300000210832116002680C4B1A400260031D3D
:101A40000B4A1A60026822F48022026006480C30B9
:101A50000160FFF771FF03494FF0006080390860B3
:101A600010BD000088ED00E000380240FFFFF6FEE8
:101A70001030002410B53A4C0121204600F0BBF88C
:101A800000286CD00121204600F0A8F8354800F06D
:101A9000ABFA3448801D00F0B1FA32480C3000F047
:101AA000B7FA314800F086FA2F480C3000F092FA6D
:101AB0002C48243800F086FA00F006FAFEF75AFFA8
:101AC000284C243C84ED080AFFF7FCFB84ED030A54
:101AD000FFF75CFC84ED040AFFF7BEFC84ED050A09
:101AE000FFF71EFD84ED060AFFF77EFD1F4884ED1B
:101AF000070A0078012829D0032801D002282ED116
:101B000094ED060ABDEEC00A10EE103A94ED050AF7
:101B1000BDEEC00A10EE102A94ED040ABDEEC00A14
:101B200010EE101A94ED030ABDEEC00A10EE100A72
:101B3000FEF712FC94ED070ABDEEC00A10EE101A73
:101B400010EE100ABDE81040FEF7CABC00231A468A
:101B500019461846FEF700FC00210846F2E710BDC2
:101B60000004004028000020500100204600002012
:101B70007FB54FF44070FFF77DFA01210220FFF797
:101B80006DFE14480024144D416801910089ADF8A0
:101B90000000ADF80840ADF802406946284600F064
:101BA0003FF801221146284600F031F81D208DF83B
:101BB0000C0005208DF80D008DF80E4001208DF8E9
:101BC0000F0003A8FFF724FA0121284600F009F8C6
:101BD0007FBD00000400002000040040C9430182D2
:101BE00070470029018802D041F0010101E021F095
:101BF00001010180704702460020138A92890B423E
:101C000002EA010202D0002A00D001207047002A17
:101C1000828901D00A4300E08A4382817047000034
:101C200030B50288164B174C98420DD0A0420BD00D
:101C3000B0F1804F08D0144DA84205D0134DA842F2
:101C400002D0134DA84203D122F070054A882A43DE
:101C5000104DA84206D0104DA84203D022F4407582
:101C60000A892A4302804A68C2620A880285984229
:101C700001D0A04201D1897A01860121818230BD43
:101C80000000014000040140000400400008004042
:101C9000000C0040001000400014004010B50A4C39
:101CA00040F22551204600F06DF800280BD020218D
:101CB000204600F00BF8204600F0F2F8BDE8104096
:101CC000C0B2FFF77DBA10BD00500040C94301808B
:101CD00070470029818902D041F4005101E021F4CC
:101CE000005181817047002A828A01D00A4300E0B6
:101CF0008A438282704700001C4910B5884206D191
:101D000001211020FFF7C2FD0021102028E0184912
:101D1000884202D101214C0410E01649884202D1C8
:101D200001218C040AE01449884202D10121CC042B
:101D300004E0124988420AD101210C052046FFF730
:101D400099FD2046BDE810400021FFF793BD0C49E6
:101D5000884209D101212020FFF798FD0021202091
:101D6000BDE81040FFF792BD10BD0000001001401B
:101D70000044004000480040004C0040005000403B
:101D80000014014030B501F01F0201240025C1F309
:101D9000421304FA02F2012B0FD0022B0FD0838AD8
:101DA0004FEA11210088134204FA01F400EA04000A
:101DB00001D000B10125284630BD8389F0E7038AB0
:101DC000EEE710B5C1F3421301F01F040121A14059
:101DD000012B07D0022B07D01430002A026805D04F
:101DE0000A4304E00C30F8E71030F6E78A4302605B
:101DF00010BD00007FB50446008A0D4620F4405116
:101E0000E88808432082A08941F20C618843A988B0
:101E10002A8911436A8902431143A181A08A20F4CF
:101E20004071A8890843A0826846FFF73BFD1A4825
:101E3000844202D01948844201D1039800E00298FC
:101E4000A189090400EBC00101EB0010296801D54C
:101E5000490000E08900B0FBF1F26420B2FBF0F130
:101E600009010B096FF018056B4302EB8302A3898C
:101E70001D044FF0320306D503EBC202B2FBF0F0B3
:101E800000F0070005E003EB0212B2FBF0F000F0F7
:101E90000F00084320817FBD001001400014014065
:101EA0008088C0F30800704702E008C8121F08C10C
:101EB000002AFAD170477047002001E001C1121FCB
:101EC000002AFBD1704700002949F0EE000ADFED3F
:101ED000291AB1F90000294BA0F5806000EE100A24
:101EE000A1F11800B8EEC00A20EE201A81EE210AF6
:101EF00080ED030AB1F90220A2F5806201EE102AFA
:101F000010EE102AB8EEC11A21EE202A82EE211A14
:101F100080ED041AB1F90410A1F5806102EE101AE7
:101F20001549B8EEC22A8A4222EE202AC2EE210AC0
:101F3000DFED131AC0ED050A05DC10EE102A9A42F7
:101F400001D8C0ED031A11EE102A8A4205DC11EE09
:101F5000102A9A4201D8C0ED041A10EE902A8A4243
:101F600005DC10EE901A994201D8C0ED051A7047B1
:101F70005C0000200000A544CDCCCC3DCDCCCCBD38
:101F800000000000F0B50388002541F221070CE0B5
:101F90004C5D002683EA04235C001B0400D57C40D2
:101FA000761C2346082EF7D36D1C9542F0D3038090
:101FB000F0BD0000024B0ECB80E80E000020704701
:101FC000800300200249097801700020704700005A
:101FD0009400002010B5034C1ECC80E81E000020A9
:101FE00010BD00008C0300200349D1F802200260DC
:101FF000C9888180002070479400002003498A68C6
:1020000002608989818000207047000094000020D0
:102010000349D1F80E200260498A81800020704770
:102020009400002010B503490348FFF73FF9002052
:1020300010BD000089100008F4020020FEF7F6F839
:10204000FEF7B4F9FFF742FB00F092F8FFF7EAFF62
:1020500000F006F8FFF7CAFCFFF78AFDFEE7000074
:1020600070B596B001213C48FFF7ECFB0121480414
:10207000FFF7F4FB394D072203212846FEF7B7FF8F
:102080000820139002208DF8500000248DF8524053
:1020900003208DF851008DF8534013A92846FEF710
:1020A00055FF2F4E3046FFF727FE2E480F902D1577
:1020B000ADF844500420ADF84040ADF84600ADF80E
:1020C0004240ADF848400FA93046FFF793FE40214B
:1020D0003046FFF7FBFD01213046FFF7FAFD0122F4
:1020E00040213046FFF7FFFD10208DF854000120FD
:1020F0008DF855008DF856008DF8570015A8FEF79D
:1021000087FF194E3046FEF72FFD680400901448F3
:1021100004A9001D01901548CDE90204122081E8B0
:102120003100A810CDE908404FF44030CDE90A0451
:1021300007940C940D94694630460E94FEF7E6FD24
:10214000012210213046FEF7CBFD01213046FEF77B
:1021500001FD16B070BD000001002000000002402B
:1021600000440040A086010088600240A4020020D4
:102170002DE9F04188B04FF44070FEF77BFF01215C
:102180000420FFF75FFB01210820FFF75BFB012123
:102190000805FFF763FB2C4F082202213846FEF7A3
:1021A00026FFDFF8A88008220C214046FEF71FFF1B
:1021B00002258DF80450002404208DF8064000907C
:1021C0008DF8055001268DF8076069463846FEF700
:1021D000BDFE8DF80450E8028DF8064000908DF8A1
:1021E00005508DF8076069464046FEF7AFFE352082
:1021F0008DF8180005208DF819008DF81A408DF81B
:102200001B6006A8FEF704FF4FF4E130ADF80C4068
:102210000290ADF80E40ADF81040ADF814400C201F
:102220000B4CADF8120002A92046FFF7E3FD012296
:1022300040F225512046FFF7C4FD01212046FFF75B
:1022400048FD08B0BDE8F081000C024000080240E3
:10225000005000407422000800000020B800000078
:10226000A81E00082C230008B8000020E811000078
:10227000B81E000800000000000000000900000077
:10228000CF2000000000000000000000000000005F
:10229000000000000000000000000000000000003E
:1022A000000000000000000000000000000000002E
:1022B000000000000000000000000000010000001D
:1022C00024000000000000000000000000000000EA
:1022D00000040004000400040103000000000000EA
:1022E00000000000000000000000000000000000EE
:1022F000000000000000000000005AA500000000DF
:1023000000000000000000000000000000000000CD
:1023100000000000000000000000000000000000BD
:0C2320000102030401020304060708097F
:040000050800018965
:00000001FF
