:020000040800F2
:10000000F01000209D010008A5010008A7010008CC
:10001000A9010008AB010008AD01000800000000C4
:10002000000000000000000000000000AF01000818
:10003000B101000800000000B3010008B50100088C
:10004000B7010008B7010008B7010008B7010008B0
:10005000B7010008B7010008B7010008B7010008A0
:10006000B7010008B7010008B7010008B701000890
:10007000B7010008B7010008B7010008B701000880
:1000800081070008B7010008B7010008B7010008A0
:10009000CD020008B7010008B7010008B701000849
:1000A000B7010008B7010008B7010008B701000850
:1000B000B701000879140008B7010008B70100086B
:1000C000B7010008B7010008B7010008B701000830
:1000D000B7010008B7010008B7010008B701000820
:1000E000B7010008B7010008B7010008B701000810
:1000F000B7010008B7010008B7010008B701000800
:10010000B7010008B7010008B7010008B7010008EF
:10011000B7010008B7010008B7010008B7010008DF
:10012000B7010008B7010008B7010008B7010008CF
:10013000B7010008B7010008B7010008B7010008BF
:10014000B7010008B7010008B7010008B7010008AF
:10015000B7010008B7010008B7010008B70100089F
:10016000B7010008B7010008B7010008B70100088F
:10017000B7010008B7010008B7010008B70100087F
:10018000B7010008B7010008DFF80CD000F018F83C
:100190000048004779180008F01000200648804702
:1001A00006480047FEE7FEE7FEE7FEE7FEE7FEE75C
:1001B000FEE7FEE7FEE7FEE71D14000889010008E0
:1001C000064C074D06E0E06840F0010394E80700A4
:1001D00098471034AC42F6D3FFF7DAFF9C190008B9
:1001E000BC190008F0B501218BB0084601F042F8B7
:1001F0000121480601F04AF84FF4C0500790022050
:100200008DF8200000248DF8224003262D4F8DF814
:10021000216001258DF8235007A9384600F07EFDA6
:1002200009220B21384600F0CAFD09220C2138466C
:1002300000F0C5FD8DF806408DF807408DF80240AE
:1002400008208DF803408DF804008DF808408DF8E3
:100250000560ADF800608DF809401B4E8DF80A402E
:100260008DF80B506946304600F04CF98DF8164079
:100270008DF817408DF81850ADF80C40ADF81040CF
:10028000ADF80E40ADF81240ADF814408DF819509D
:1002900003A800F075F801220221304600F02AF987
:1002A0004FF4407000F0CEFD14208DF824008DF83E
:1002B00025508DF826408DF8275009A800F090FDB4
:1002C0000BB0F0BD000002400064004010B50D4CC2
:1002D00086B00221204600F0B9F8002810D0022193
:1002E000204600F011F801AA0021204600F07EF916
:1002F00005980DF1040C00909CE80F0000F018FC2C
:1003000006B010BD0064004030B50823102404225C
:10031000B1F5007F1DD010DC202929D007DC012990
:1003200021D0042922D0082900D1C46030BD402941
:1003300020D0B1F5807FF9D10BE00025B1F5004F59
:1003400006D008DCB1F5806F03D0B1F5006FEDD1B8
:100350008561426030BDB1F5803F0DD0B1F5003F01
:10036000F8D1446030BD0549816030BDC36030BD07
:10037000036130BD046130BD436030BD0101010047
:10038000F0B5827A012191402E4A136843F00103AF
:1003900013602C4B1C331C688C431C60294D067B5E
:1003A000294C0C35A6B92E688E432E604688C78826
:1003B00046EA0746877A04EBC707C7F8406606880F
:1003C000878846EA0746877A04EBC707C7F844667A
:1003D000067B012E12D12E680E432E60867A0568A8
:1003E00004EBC6064FEA3545C6F84056867A45689E
:1003F00004EBC6044FEA3545C4F84456114CC57A9F
:10040000241D002D256806D00D4325600D4C05895F
:10041000143415B104E08D43F7E725688D4325605A
:100420000589012D02D125680D432560407B0128F7
:1004300002D1186808431860106820F001001060AD
:10044000F0BD000000660040006000400246002051
:1004500053690B424AD0B1F5807F3BD013DC0829A9
:100460002ED007DC012926D0022927D004293DD12E
:10047000D0682BE0102925D0202926D0402935D15D
:100480001069102130E0B1F5004F2BD00BDCB1F535
:10049000007F22D0B1F5806F22D0B1F5006F25D159
:1004A0009069702120E0B1F5803F11D0B1F5003F97
:1004B0001CD15068E5E790680D4915E0D06802E06E
:1004C000D068DEE7106903210EE0106908210BE017
:1004D0005068FBE79069012106E09069022103E082
:1004E000906900E05068042100F044B970470000B2
:1004F00001010100002A426901D00A4300E08A4359
:100500004261704710B50368002223F002030360C4
:10051000036843F0010303604FF6FF7300E0521CD1
:100520004468E40701D19A42F9D14268D2073ED02B
:100530008A79012A02683CD022F080020260CA79DE
:10054000012A026838D022F0400202600A7A012AA9
:10055000026834D022F0200202604A7A012A02683E
:1005600030D022F0100202608A7A012A02682CD070
:1005700022F008020260CA7A012A026828D022F01A
:10058000040202608A78CC78920742EA04620C790D
:1005900042EA04424C79098842EA0452491E0A435D
:1005A000C261016821F001010160002114E0002016
:1005B00010BD42F08002C1E742F04002C5E742F0C0
:1005C0002002C9E742F01002CDE742F00802D1E76D
:1005D00042F00402D5E7491C4268D20701D0994293
:1005E000F9D14068C007E2D1012010BD10B500EB81
:1005F0000113D3F8B04114F004041472D3F8B041DD
:1006000034D0E408C2F80440D3F8B04104F0020446
:100610005472D3F8B44104F00F049472D3F8B44187
:10062000240AD474D3F8B841D472D3F8B841240A58
:100630001473D3F8B841240C5473D3F8B841240E82
:100640009473D3F8BC41D473D3F8BC41240A147416
:10065000D3F8BC41240C5474D3F8BC311B0E9374F2
:1006600039B1016941F02001016110BD640D1460D0
:10067000CAE7C16841F02001C16010BD10B586B065
:1006800000248DF809408DF808404FF40074009460
:1006900008248DF80A40040A8DF80C00080A8DF829
:1006A0000D008DF80E10100A8DF80F008DF8102037
:1006B000180A8DF811008DF80B408DF8123069463C
:1006C000024800F005F806B010BD000000640040CC
:1006D00030B50246002093685B0108D490680001A1
:1006E00001D5012003E09068C00037D5022002EB5D
:1006F0000012D2F8803103F00103C2F880310B7A86
:1007000073B3D2F880414D681C434B7A43EAC5036A
:100710001C43C2F880418B7A03F00F038B72D2F82E
:10072000843123F00F03C2F88431D2F884318C7AFB
:100730002343C2F88431CB7ACC6843EA0423C2F85D
:100740008831CB7B096943EA0121C2F88C11D2F8C8
:10075000801141F00101C2F8801130BD042030BD8C
:10076000D2F880314C7A23430C8843EA4453C2F8D0
:100770008031D0E7024600200A4200D001207047B5
:100780002DE9F0474C4C00204C4E4D4D2070314629
:10079000284600F063F9002856D04A49284600F060
:1007A00095F83146284600F0A7F8DFF81C8104F1DF
:1007B000100C08F11A03B8F80000C0F30A051D80F8
:1007C00098F80100A5F5B677C10898F8020041EA4B
:1007D0004011C1F30A025A8098F80310800940EAD8
:1007E000810198F8040041EA8021C1F30A0199804F
:1007F000400898F80560B7F5A56F40EAC610C0F349
:100800000A00D88010D84FF4B6794A450CDB40F284
:1008100094639A4208DC494506DB994204DC0746AA
:10082000484501DB984211DD4FF48060ACF80000D0
:10083000ACF80200ACF80400ACF8060001208CF81B
:1008400008008CF809006070BDE8F087ACF8005033
:10085000ACF80220ACF80410ACF80670B0098CF8C3
:100860000800C6F301118CF80910A070B8F80E004A
:10087000ACF810005FF00000BCF910100CEB0002A7
:10088000014101F00101401C91741028F4DBB8F81B
:100890000600ACF80A00B8F80800ACF80C00B8F88C
:1008A0000A00ACF80E0098F80C008CF8220098F8BA
:1008B0000D008CF82300C7E71800002000880020F6
:1008C0008860024000080020B0010020074A9042E2
:1008D00001D2074801E005481038064A8B0001EABA
:1008E000020101D5C1607047816070471064024009
:1008F000006002407D0F7D0F074A904201D20748F9
:1009000001E005481038064A8B0001EA020101D5D2
:10091000C16070478160704710640240006002400F
:100920007D0F7D0F0029016802D041F0010101E037
:1009300021F00101016070472DE9F043016821F0C9
:10094000010101600021016041608160C1600161BD
:10095000212141613C493C4A3D251039904202D158
:100960008D60BDE8F083384A4FF4746618329042C7
:1009700001D18E60F5E7344A4FF47417303290425B
:1009800001D18F60EDE7304A4FF0746C48329042ED
:1009900002D1C1F808C0E4E72B4B2C4A60339842DF
:1009A00001D1CA60DDE7284C294B7834A04201D13F
:1009B000CB60D6E7DFF89080264C08F190084045E0
:1009C00001D1CC60CDE7DFF880804FF03D5908F1D0
:1009D000A808404502D1C1F80C90C2E71E49DFF8D3
:1009E00078800839404501D10D60BAE71A4D1835B5
:1009F000A84201D10E60B4E7174D3035A84201D1AD
:100A00000F60AEE7144D4835A84202D1C1F800C0CE
:100A1000A7E7114D10496035091FA84201D10A60AE
:100A20009FE70D4A7832904201D10B6099E70A4A5C
:100A30009032904201D10C6093E7074AA83290426D
:100A40008FD1C1F800908CE7106002403D0000207B
:100A5000400F002000003D201064024030B5104AD5
:100A60000024904201D20F4B01E00D4B103B0E4A87
:100A7000114205D01E2202EAD12502682A4002E076
:100A8000406900F08002880001D5586800E01868CD
:100A9000064B1840084201D002B10124204630BD67
:100AA00010640240006002403C0F3C0F7D0F7D0F40
:100AB0000B0607D5436912B143F0800301E023F030
:100AC00080034361802908D0002A026801F01E01DA
:100AD00001D00A4300E08A430260704730B50368E2
:100AE000124ACC6813400A682243D1E905452C43D9
:100AF0002243CC6922430C6A22434C6A22438C6A0B
:100B000022434C6B22438C6B22431A43026042699E
:100B100022F00703D1E90B2422431A4342610A69F8
:100B200042604A6882608968C16030BD3F801CF0C5
:100B30000FB4794870B5049DBDF81B40BDF81D3059
:100B4000BDF81F209DF82110A5F20125072D23D205
:100B5000DFE805F004234261809FBE0064BA24B23E
:100B600000EE104A5BBA1BB2B8EEC00A52BA12B21B
:100B700080ED040A00EE103AB8EEC00A80ED000ADB
:100B800000EE102AB8EEC00A80ED0E0A00EE101A30
:100B9000B8EE400A80ED150AB8E064BA24B200EE5F
:100BA000104A5BBA1BB2B8EEC00A52BA12B280ED5C
:100BB000050A00EE103AB8EEC00A80ED010A00EE18
:100BC000102AB8EEC00A80ED0F0A00EE101AB8EE37
:100BD000400A80ED160A99E064BA24B200EE104A89
:100BE0005BBA1BB2B8EEC00A52BA12B280ED060A66
:100BF00000EE103AB8EEC00A80ED020A00EE102AAC
:100C0000B8EEC00A80ED100A00EE101AB8EE400AE5
:100C100080ED170A7AE064BA24B200EE104A5BBA9B
:100C20001BB2B8EEC00A52BA12B280ED070A00EE4B
:100C3000103AB8EEC00A80ED030A00EE102AB8EEB2
:100C4000C00A80ED110A00EE101AB8EE400A80EDDD
:100C5000180A5BE064BA24B200EE104A5BBA1BB219
:100C6000B8EEC00A52BA12B280ED080A00EE103A8D
:100C7000B8EEC00A80ED0B0A00EE102AB8EEC00AEA
:100C800080ED120A00EE101AB8EE400A80ED190A43
:100C90003CE064BA24B200EE104A5BBA1BB2B8EE74
:100CA000C00A52BA12B280ED090A00EE103AB8EE4C
:100CB000C00A80ED0C0A00EE102AB8EEC00A80EDE2
:100CC000130A00EE101AB8EE400A80ED1A0A1DE071
:100CD00064BA24B200EE104A5BBA1BB2B8EEC00A86
:100CE00052BA12B280ED0A0A00EE103AB8EEC00A0B
:100CF00080ED0D0A00EE102AB8EEC00A80ED140A4D
:100D000000EE101AB8EE400A80ED1B0A012180F8AF
:100D1000701070BC5DF814FB5C000020F0B500237F
:100D2000012403270D6804FA03F21540954242D1CD
:100D3000D0F800C05E0007FA06F52CEA050CC0F8F2
:100D400000C091F804C0D0F800E00CFA06FC4CEAB0
:100D50000E0CC0F800C091F804C0BCF1010F02D025
:100D6000BCF1020F1FD1D0F808C02CEA050CC0F866
:100D700008C091F805C0D0F808E00CFA06FC4CEA6F
:100D80000E0CC0F808C0D0F804C02CEA020CC0F861
:100D900004C0426891F806C00CFA03FC1FFA8CFCF0
:100DA00042EA0C024260C268AA43C260CA79C568BE
:100DB000B2402A43C2605B1C102BB3D3F0BD4B077B
:100DC000DB0E9A40C90810B500EB8100016A0F24C0
:100DD0009C40A1430162016A1143016210BD000001
:100DE00030B50F22C47801780123FCB1144C24687B
:100DF00001F1E02104F4E064C4F5E064C4F30724E5
:100E0000C4F10405E2404478AC40857815402543A0
:100E10002A0181F80024007800F01F018B4040096E
:100E2000800000F1E020C0F8003130BD01F01F006B
:100E300083404809800000F1E020C0F8803130BDD7
:100E40000CED00E0024908430249086070470000C9
:100E50000000FA050CED00E02C482D49D0ED0C0AFD
:100E600091ED000A2B4920EE600A91ED001A2A4903
:100E700001EE600A91ED001A284901EE200A80ED8A
:100E8000030AD1ED000AC0ED040A70EE600AC0ED5D
:100E9000050A90ED010A20EE800A80ED080A90ED27
:100EA000061A90ED002A70EEC11A02EE210AB0EE89
:100EB000002AF0EE601A41EE421A90ED072A71EE18
:100EC000821A90ED022A02EE210AD0ED0A1A30EEC3
:100ED000210A80ED0A0A80ED071AC0ED060AD0ED5E
:100EE0000B0AB4EEE00AF1EE10FA01DDB0EE600A92
:100EF000F1EE600A80ED0A0AB4EEE00AF1EE10FAB3
:100F000001D2B0EE600A80ED0A0A7047E0000020CE
:100F1000200000201C000020240000205C00002095
:100F20002D482E49D0ED0C0A91ED000A2C4920EEF7
:100F3000800A91ED001A2B4901EE600A91ED001A2A
:100F4000294901EE200A80ED030AD1ED010AA0F142
:100F50003401C0ED040A70EE600AC0ED050A91ED9F
:100F6000010A20EE800A80ED080A90ED061A90ED45
:100F7000002A70EEC11A02EE210AB0EE002AF0EE4D
:100F8000601A41EE421A90ED072A71EE821A90ED36
:100F9000022A02EE210AD0ED0A1A30EE210A80ED73
:100FA0000A0A80ED071AC0ED060AD0ED0B0AB4EE6E
:100FB000E00AF1EE10FA01DDB0EE600AF1EE600A2F
:100FC00080ED0A0AB4EEE00AF1EE10FA01D2B0EEBA
:100FD000600A80ED0A0A7047140100201C000020FE
:100FE00020000020240000205C0000202C482D4917
:100FF000D0ED0C0A91ED000A2B4920EE800A91ED0C
:10100000001A2A4901EE600A91ED001A284901EE02
:10101000200A80ED030AD1ED020AC0ED040A70EE49
:10102000600AC0ED050A90ED010A20EE800A80ED0D
:10103000080A90ED061A90ED002A70EEC11A02EE31
:10104000210AB0EE002AF0EE601A41EE421A90ED4D
:10105000072A71EE821A90ED022A02EE210AD0EDE3
:101060000A1A30EE210A80ED0A0A80ED071AC0ED57
:10107000060AD0ED0B0AB4EEE00AF1EE10FA01DD3B
:10108000B0EE600AF1EE600A80ED0A0AB4EEE00A02
:10109000F1EE10FA01D2B0EE600A80ED0A0A704754
:1010A00048010020200000201C0000202400002017
:1010B0005C0000202C482D49D0ED0C0A91ED000A6F
:1010C0002B4920EE800A91ED001A2A4901EE200AF0
:1010D00091ED001A284901EE200A80ED030AD1EDB6
:1010E000030AC0ED040A70EE600AC0ED050A90ED37
:1010F000010A20EE800A80ED080A90ED061A90EDB4
:10110000002A70EEC11A02EE210AB0EE002AF0EEBB
:10111000601A41EE421A90ED072A71EE821A90EDA4
:10112000022A02EE210AD0ED0A1A30EE210A80EDE1
:101130000A0A80ED071AC0ED060AD0ED0B0AB4EEDC
:10114000E00AF1EE10FA01DDB0EE600AF1EE600A9D
:1011500080ED0A0AB4EEE00AF1EE10FA01D2B0EE28
:10116000600A80ED0A0A70477C0100202000002000
:101170001C000020240000205C0000203848B2EE53
:10118000040AA0F1340180ED000AA0F1680281EDAB
:10119000000AA0F19C0382ED000A83ED000A9FED96
:1011A000310ADFED320A80ED010A81ED010A82ED9C
:1011B000010A83ED010A9FED2C0A80ED020A81ED00
:1011C000020A82ED020A83ED020A80ED030A81ED34
:1011D000030A82ED030A83ED030A80ED040A81ED20
:1011E000040A82ED040A83ED040A80ED050A81ED0C
:1011F000050A82ED050A83ED050A80ED060A81EDF8
:10120000060A82ED060A83ED060A80ED070A81EDE3
:10121000070A82ED070A83ED070A80ED080A81EDCF
:10122000080A82ED080A83ED080AC0ED0B0AC1ED39
:101230000B0AC2ED0B0AC3ED0B0ADFED0D0AC0ED80
:101240000C0AC1ED0C0AC2ED0C0AC3ED0C0A80EDCC
:101250000A0A81ED0A0A82ED0A0A83ED0A0A70473A
:101260007C0100200AD7233C000000000000FA4562
:1012700000803B45044A0029116801D0014300E089
:10128000814311607047000030380240044A002951
:10129000116801D0014300E08143116070470000F4
:1012A00040380240044A0029116801D0014300E09F
:1012B000814311607047000020380240044A002931
:1012C000116801D0014300E08143116070470000C4
:1012D0002438024070B5204A1168204C11F00C01EE
:1012E00004D01F4E042903D0082903D004601BE05A
:1012F000066019E01849091F0B68C3F380550B6895
:1013000003F03F0315B1B6FBF3F301E0B4FBF3F3D5
:101310000C680968C4F388146343C1F30141491C94
:101320004900B3FBF1F1016011680F2303EA1111C9
:101330000C4B5C5C0168E14041601468072505EADC
:1013400094241C5D21FA04F48460126805EA523288
:101350009A5CD140C16070BD083802400024F4009E
:1013600040787D014C0000200CB5002027490190F9
:1013700000900A6842F480320A604FF4A0630A6861
:1013800002F400320092019A521C0192009A12B9A2
:10139000019A9A42F3D10A68920334D50120009051
:1013A0001A484030026842F08052026018480268D1
:1013B00042F4804202601548083002680260026808
:1013C00042F400420260026842F4A0520260031F2D
:1013D000104A1A600A6842F080720A600A68920134
:1013E000FCD50D4A40F205611160016821F003014E
:1013F0000160016841F0020101600168C1F38101EF
:101400000229FAD10CBD00900CBD0000003802404A
:101410000070004019544007003C0240124810B5CB
:10142000016841F4700101601048016841F0010158
:1014300001600E4A00210832116002680C4B1A400C
:101440000260031D0B4A1A60026822F480220260C7
:1014500006480C300160FFF787FF03494FF000603A
:101460008039086010BD000088ED00E000380240BF
:10147000FFFFF6FE1030002410B5214C012120465C
:1014800000F087F8002839D00121204600F074F8D8
:1014900000F094F9FFF7E0FC1A4C84ED020AFFF724
:1014A0003FFD84ED030AFFF7A1FD84ED040AFFF779
:1014B00001FE154884ED050A0078012819D0BDEE1B
:1014C000C00A10EE103A94ED040ABDEEC00A10EE08
:1014D000102A94ED030ABDEEC00A10EE101A94ED26
:1014E000020ABDEEC00A10EE100ABDE81040FFF778
:1014F000C5B800231A4619461846F6E710BD000085
:1015000000040040000000201A0000207FB54FF4C6
:101510004070FFF797FC01210220FFF7B7FE144847
:101520000024144D016801918088ADF80000ADF8E9
:101530000840ADF802406946284600F03FF8012215
:101540001146284600F031F81D208DF80C000520CA
:101550008DF80D008DF80E4001208DF80F0003A8C6
:10156000FFF73EFC0121284600F009F87FBD00008E
:101570000000002000040040C94301827047002998
:10158000018802D041F0010101E021F00101018058
:10159000704702460020138A92890B4202EA010238
:1015A00002D0002A00D001207047002A828901D091
:1015B0000A4300E08A4382817047000030B5028808
:1015C000164B174C98420DD0A0420BD0B0F1804F73
:1015D00008D0144DA84205D0134DA84202D0134D97
:1015E000A84203D122F070054A882A43104DA84230
:1015F00006D0104DA84203D022F440750A892A4330
:1016000002804A68C2620A880285984201D0A042DC
:1016100001D1897A01860121818230BD000001401B
:10162000000401400004004000080040000C00409D
:101630000010004000140040C94301807047002999
:10164000818902D041F4005101E021F400518181EF
:101650007047002A828A01D00A4300E08A438282CE
:10166000704700001C4910B5884206D101211020A6
:10167000FFF724FE0021102028E01849884202D1FB
:1016800001214C0410E01649884202D101218C044A
:101690000AE01449884202D10121CC0404E0124935
:1016A00088420AD101210C052046FFF7FBFD2046A8
:1016B000BDE810400021FFF7F5BD0C49884209D173
:1016C00001212020FFF7FAFD00212020BDE8104075
:1016D000FFF7F4BD10BD00000010014000440040C1
:1016E00000480040004C0040005000400014014001
:1016F0007FB50446008A0D4620F44051E88808432F
:101700002082A08941F20C618843A9882A8911436B
:101710006A8902431143A181A08A20F44071A889FB
:101720000843A0826846FFF7D5FD1A48844202D0DC
:101730001948844201D1039800E00298A189090464
:1017400000EBC00101EB0010296801D5490000E061
:101750008900B0FBF1F26420B2FBF0F109010B0942
:101760006FF018056B4302EB8302A3891D044FF051
:10177000320306D503EBC202B2FBF0F000F0070023
:1017800005E003EB0212B2FBF0F000F00F0008439B
:1017900020817FBD001001400014014002E008C814
:1017A000121F08C1002AFAD170477047002001E0DB
:1017B00001C1121F002AFBD1704700002949F0EE39
:1017C000000ADFED291AB1F90000294BA0F580606D
:1017D00000EE100AA1F11000B8EEC00A20EE201AA7
:1017E00081EE210A80ED010AB1F90220A2F58062A2
:1017F00001EE102A10EE102AB8EEC11A21EE202AAE
:1018000082EE211A80ED021AB1F90410A1F580616F
:1018100002EE101A1549B8EEC22A8A4222EE202A98
:10182000C2EE210ADFED131AC0ED030A05DC10EE4B
:10183000102A9A4201D8C0ED011A11EE102A8A42EC
:1018400005DC11EE102A9A4201D8C0ED021A10EE02
:10185000902A8A4205DC10EE901A994201D8C0ED18
:10186000031A7047280000200000A544CDCCCC3DD1
:10187000CDCCCCBD00000000FEF7B4FCFFF746FE67
:10188000FFF77CFC00F002F8FEE7000070B596B0B0
:1018900001213C48FFF7EEFC01214804FFF7F6FC6C
:1018A000394D072203212846FFF789FA08201390B3
:1018B00002208DF8500000248DF8524003208DF84E
:1018C00051008DF8534013A92846FFF727FA2F4EF1
:1018D0003046FFF7C7FE2E480F902D15ADF8445047
:1018E0000420ADF84040ADF84600ADF84240ADF8F8
:1018F00048400FA93046FFF7FBFE40213046FFF776
:101900009BFE01213046FFF79AFE0122402130461E
:10191000FFF79FFE10208DF8540001208DF8550030
:101920008DF856008DF8570015A8FFF759FA194E93
:101930003046FFF701F868040090144804A9001D20
:1019400001901548CDE90204122081E83100A81069
:10195000CDE908404FF44030CDE90A0407940C94D7
:101960000D94694630460E94FFF7B8F80122102115
:101970003046FFF79DF801213046FEF7D3FF16B041
:1019800070BD000001002000000002400044004043
:10199000A086010088600240B0010020BC19000848
:1019A000000000205C0000009C170008181A0008C6
:1019B0005C00002094100000AC1700080900000033
:1019C000CF20000000000000000000000000000028
:1019D0000000000000000000000000000000000007
:1019E00000000000000400040004000401030000E3
:1019F00000000000000000000000000000000000E7
:101A000000000000000000000000000001020304CC
:081A10000102030406070809A6
:040000050800018965
:00000001FF
